:03000000020006F5
:03005F0002000399
:0300030002006C8C
:20006200AF8210990280FB8F9922C2987E007F00EE245BFBEF3407FC7D808B828C838DF062
:2000820012073BFA6036EAF93395E0FA89828A83C007C006C005C004C0031200FBA982AA22
:2000A20083D003D004D005D006D0078B828C838DF0E91200E00EBE00B70F80B4745BC0E0E9
:1E00C2007407C0E07480C0E0746BC0E07407C0E07480C0E0120142E58124FAF58122D2
:13075B0074686973206973206120746573742E00257300B0
:06003500E478FFF6D8FD9F
:200013007900E94400601B7A00900779780175A000E493F2A308B8000205A0D9F4DAF27513
:02003300A0FF2C
:1B00E00020F71130F6138883A88220F509F6A8837583002280FEF280F5F0221F
:20003B007800E84400600A790175A000E4F309D8FC7800E84400600C7900900001E4F0A3C3
:04005B00D8FCD9FAFA
:2000FB00AE82AF838E05BD6100400FED2485400A74E02EFC74FF3FFD80048E048F058C82BE
:03011B008D8322AF
:20011E00C009858109120062D0092285823185833285F033E4F52EF52FF5308508349001BE
:20013E001E020219C009858109E50924FBFF8F34E4F52EF52FF530E50924FBF88631088625
:0D015E003208863390011E120219D00922CA
:20016B00AF82C024C025C0261201788007C022C0238F8222158115811581052CE4B52C02D0
:20018B00052D22AF8274302FFF24C6500A74072FFF3000034307208F8202016BE582FFC4CA
:2001AB00540FF582C00712018ED007740F5FF58202018E85820A85270B85280C85290D8570
:2001CB002A0EAA2B750F20EA2AFAE50E235401FF8A064EFAE50B250BF50BE50C33F50CE5E9
:2001EB000D33F50DE50E33F50EC3EA950A4008EAC3950AFA430B01E50F14FF8F0F70C885FE
:20020B000B27850C28850D29850E2A8A2B22858222858323852E24852F25853026E4F52CB5
:20022B00F52DAD31AE32AF338D828E838FF012073BFC74012DF531E43EF5328F33ECFF70D4
:20024B000302071CBF25028003020714C201C202C203C204C205C206C207C2087535007592
:20026B0036007CFFAA31AB32AE338A828B838EF012073BFFA3AA82AB838A318B328E33BF49
:20028B0025078F8212016B80998F3874D025385026E53824C64020BCFF12E53675F00AA43F
:2002AB00FD2F24D0F53670C2D20280BEEC75F00AA42F24D0FC80B3BF2E07BCFFAD7C0080FB
:2002CB00A98F05BD6100400CED248540075307DFD2008002C200BF2002806DBF2B028063A3
:2002EB00BF2D028059BF42028063BF43028068BF44030204BEBF46030204D4BF48030202A0
:20030B0075BF49030204BEBF4A03020275BF4C028040BF4F030204C5BF5003020453BF53E3
:20032B0002805CBF5403020275BF55030204CABF58030204CFBF5A030202750204D8D20129
:20034B00020275D203020275D204020275D206020275D20702027530060CE53414FE8E34AA
:20036B008E0187078011E53424FEFE8E348E018705098706198D078F8212016B0204E1E510
:20038B003424FDFE8E348E01870309870509870619198B278D288E298B828D838EF0C0044A
:2003AB00120723AD82AE83D004BCFF028D0420012AC3ED95365024E536C39DF536AE368E22
:2003CB00031EEB6014758220C006C005C00412016BD004D005D00680E68E368C0685278245
:2003EB008528838529F012073BFCFF602F8E041EC374808CF063F08095F050208F82C006C4
:20040B00C00512016BD005D006AA27AB28AC290ABA00010B8A278B288C2980C1200103021A
:20042B0004E1C3ED953640030204E1E536C39DF536AE368E041EEC70030204DF758220C0D2
:20044B000612016BD00680EBE53424FDFC8C348C01870209870309870419198A278B288C77
:20046B0029AC29BC800040047F438014BC600040047F50800BBC400040047F4980027F5882
:20048B008F82C00712016B75823A12016B75823012016B75827812016BD007BF4902800B4E
:2004AB00BF500280068528821201A78527821201A78023D20575350A801C75350880177541
:2004CB00350A8012753510800DD20880098F8212016B80028E3630085CE53424FCFE8E3434
:2004EB008E0187020987030987040987061919198A278B288C298E2A75276E7528077529B4
:20050B008085273985283A85293B74012539FAE4353AFCAE3B8A278C288E29853982853A7B
:20052B0083853BF012073BFEFF700302022D8F8212016B80CCE535700302022D75371530FE
:20054B00062DE53414FC8C348C01E7FA3395E0FBFCFE8A278B288C298E2A200566AA277BC1
:20056B00007C007E008A278B288C298E2A8054300721E53424FCFE8E348E018702098703D5
:20058B000987040987061919198A278B288C298E2A8030E53424FEFE8E348E0187040987B5
:2005AB000619EE3395E0FBFA8C278E288B298A2A200510AA27AB287C007E008A278B288CF2
:2005CB00298E2A300522E52A30E71BC3E49527FAE49528FBE49529FCE4952AFE8A278B28FB
:2005EB008C298E2A8002C205D209A9377E00752B00853582C006C0011201BED001D0062006
:20060B00090BE52BC4FCE7FB4CF7198002A72B0EB209E52745284529452A70D289378E05A5
:20062B00E5367003753601200224200121ED04FEAC36C3EE9C5015758220C006C005C00404
:20064B0012016BD004D005D0061C80E68C3630050E75822DC00512016BD00515368023EDF4
:20066B00602030030E75822BC00512016BD0051536800F30040C758220C00512016BD0052B
:20068B001536200122AE368E041EC3ED9C502B3002047C3080027C208C82C006C0051201BA
:2006AB006BD005D00680E0C3ED95365008E536C39DF536800775360080028E36A9378D0655
:2006CB008E051EED6026B20920090A09E7C4540FFD8D2B80078705740F5DF52B852B82C02C
:2006EB0006C00112018ED001D00680D420010302022DAE368E051EED700302022D758220FA
:18070B00C00612016BD00680EB8F8212016B02022D852C82852D832207
:0B076E003C4E4F20464C4F41543E00D3
:18072300AA82AB8312073B6003A380F8C3E5829AF582E5839BF58322BA
:0D00060075813B120757E58260030200037D
:1C073B0020F71430F6148883A88220F507E6A88375830022E280F7E49322E022CD
:040757007582002285
:00000001FF
